:100000000C9481000C94A9000C94A9000C94CB05CD
:100010000C94CB050C94CB050C94A9000C94A9006E
:100020000C94A9000C94A9000C94A9000C94A900AC
:100030000C94A9000C94A9000C94A9000C94A9009C
:100040000C9429050C94A9000C9499050C94730543
:100050000C94A9000C94A9000C94A9000C94A9007C
:100060000C94A9000C94A9004E414E494E49545994
:10007000494E46CDCCCC3D0AD7233C17B7D1387773
:10008000CC2B329595E6241FB14F0A000020410089
:1000900000C84200401C4620BCBE4CCA1B0E5AAED3
:1000A000C59D740000000800020100000304070061
:1000B00000000000000000000000002300260029CE
:1000C0000000000000240027002A00000000002596
:1000D0000028002B000404040404040404020202A7
:1000E0000202020303030303030102040810204079
:1000F00080010204081020010204081020008F066D
:10010000D50911241FBECFEFD8E0DEBFCDBF22E05E
:10011000A4ECB1E001C01D92A33DB207E1F711E0EC
:10012000A0E0B1E0ECE6F0E202C005900D92A43C44
:10013000B107D9F710E0C0E8D0E004C02197FE0174
:100140000E94180ECF37D107C9F70E9478070C9488
:1001500029100C9400003FB7F89480910902909107
:100160000A02A0910B02B0910C0226B5A89B05C013
:100170002F3F19F00196A11DB11D3FBFBA2FA92F26
:10018000982F8827BC01CD01620F711D811D911D23
:1001900042E0660F771F881F991F4A95D1F708958F
:1001A0008F929F92AF92BF92CF92DF92EF92FF9287
:1001B0004B015C010E94AB006B017C010E94AB0013
:1001C0006C197D098E099F09683E73408105910570
:1001D000A8F321E0821A9108A108B10888EEC80EA0
:1001E00083E0D81EE11CF11C81149104A104B10428
:1001F00029F7FF90EF90DF90CF90BF90AF909F9046
:100200008F900895AF92BF92CF92DF92EF92FF92BC
:100210000F931F93CF93DF936C017B018B01040F2E
:10022000151FEB015E01AE18BF08C017D10759F0CA
:100230006991D601ED91FC910190F081E02DC6010C
:100240000995892B79F7C501DF91CF911F910F9106
:10025000FF90EF90DF90CF90BF90AF900895FC019A
:10026000538D448D252F30E0842F90E0821B930B1B
:10027000541710F0CF96089501970895FC01918DC1
:10028000828D981761F0A28DAE0FBF2FB11D5D96C4
:100290008C91928D9F5F9F73928F90E008958FEF66
:1002A0009FEF0895FC01918D828D981731F0828D1A
:1002B000E80FF11D858D90E008958FEF9FEF089571
:1002C000FC01918D228D892F90E0805C9F4F821BD5
:1002D00091098F739927089581E192E00E9460014E
:1002E00021E0892B09F420E0822F089580E090E03E
:1002F000892B29F00E946C0181110C940000089553
:10030000FC01A48DA80FB92FB11DA35ABF4F2C918A
:10031000848D90E001968F739927848FA689B78981
:100320002C93A089B1898C91837080648C93938D78
:10033000848D981306C00288F389E02D80818F7D1B
:1003400080830895EF92FF920F931F93CF93DF93D3
:10035000EC0181E0888F9B8D8C8D98131AC0E88901
:10036000F989808185FF15C09FB7F894EE89FF89D0
:100370006083E889F98980818370806480839FBF6E
:1003800081E090E0DF91CF911F910F91FF90EF906E
:100390000895F62E0B8D10E00F5F1F4F0F7311277E
:1003A000E02E8C8D8E110CC00FB607FCFACFE889B9
:1003B000F989808185FFF5CFCE010E948001F1CFC0
:1003C000EB8DEC0FFD2FF11DE35AFF4FF0829FB72D
:1003D000F8940B8FEA89FB8980818062CFCFCF931D
:1003E000DF93EC01888D8823B9F0AA89BB89E8895D
:1003F000F9898C9185FD03C0808186FD0DC00FB603
:1004000007FCF7CF8C9185FFF2CF808185FFEDCF80
:10041000CE010E948001E9CFDF91CF910895209114
:100420000602309107022817390771F490910402EF
:1004300080910502981741F0E0910402F0E0EC533E
:10044000FE4F808190E008958FEF9FEF089508950B
:10045000EF92FF920F931F93CF93DF93DC015C9693
:10046000ED90FC905D97E114F10479F481E090E067
:1004700013969C938E93129790E080E0DF91CF913A
:100480001F910F91FF90EF9008955196ED91FC917F
:10049000529750968C915097982F90950FB75E96E3
:1004A0002C915E97122F127021FD6095F894208197
:1004B000112319F1282B2083E7012197F1F728E078
:1004C000462F50E0308160FF1AC0382B3083E7019F
:1004D0002197F1F7BA0175956795215089F7112396
:1004E00081F08081892380830FBF5C968D919C91E0
:1004F0000197F1F781E090E0C1CF2923DCCF3923C8
:10050000E5CF9081892BEFCF209106023091070231
:100510002817390761F4809105022091040290E0C8
:10052000805C9F4F821B91098F739927089590E0FB
:1005300080E00895209106023091070228173907BC
:10054000B9F49091040280910502981789F0E09126
:100550000402F0E0EC53FE4F80812091040230E071
:100560002F5F3F4F2F7333272093040290E00895AD
:100570008FEF9FEF08952FB7F89480910D0290911F
:100580000E02A0910F02B09110022FBF8093B6020D
:100590009093B702A093B802B093B9028EEA92E0AA
:1005A0000E949A0297FF26C02FB7F89480910D02FF
:1005B00090910E02A0910F02B09110022FBF4091B6
:1005C000B6025091B7026091B8027091B902841BD3
:1005D000950BA60BB70B4091B2025091B3026091FC
:1005E000B4027091B50284179507A607B707B0F259
:1005F0008FEF9FEF089590E080E00895CF93DF9311
:10060000FC01248135816217730788F49B01C08146
:10061000D1816CE270E0CE01820F931F0E9409101D
:10062000009729F08C1B9D0BDF91CF9108958FEFE0
:100630009FEFFACFFC0180819181009711F00C941B
:10064000BA0E0895FB0101900020E9F73197AF0140
:10065000461B570BDC01ED91FC910280F381E02DEC
:1006600009948F929F92AF92BF920F931F93CF9353
:10067000DF93CDB7DEB7A1970FB6F894DEBF0FBEFC
:10068000CDBF19A2423008F44AE08E010F5D1F4F22
:10069000842E912CB12CA12CA50194010E94F60D61
:1006A000E62FB901CA01EA3004F5E05DD801EE9306
:1006B0008D01232B242B252B79F790E080E01097D8
:1006C00029F0BD0181E192E00E942203A1960FB6BC
:1006D000F894DEBF0FBECDBFDF91CF911F910F9178
:1006E000BF90AF909F908F900895E95CDFCF4F92BD
:1006F0005F926F927F928F929F92AF92BF92CF92B2
:10070000DF92EF92FF920F931F93CF936B017C01C7
:10071000742EAC019B010E94F10D6AE271E081111F
:1007200026C046015701E894B7F82FEF3FEF4FE797
:100730005FE7C501B4010E94F10D81110CC02FEFDC
:100740003FEF4FE75FE7C501B4010E94660B6EE221
:1007500071E0181664F02FEF3FEF4FE75FE4C70139
:10076000B6010E94EC0D1816ACF462E371E081E171
:1007700092E0CF911F910F91FF90EF90DF90CF907B
:10078000BF90AF909F908F907F906F905F904F90B1
:100790000C9422032FEF3FEF4FE75FECC701B60148
:1007A0000E94660B87FDE1CF20E030E0A901C70180
:1007B000B6010E94660B10E000E087FF0AC06DE200
:1007C00081E192E00E94A2018C01F7FAF094F7F81F
:1007D000F094C0E060E070E080E09FE37C1641F0C0
:1007E00020E030E040E251E40E944B0DCF5FF6CFB5
:1007F000A70196010E94DF0C2B013C010E94BD0D58
:100800004B015C014AE00E9431037C01E00EF11EC5
:10081000CC23C1F1C501B4010E946B0B9B01AC015B
:10082000C301B2010E94DE0C4B015C016EE281E16A
:1008300092E00E94A201E80EF91EC15018F120E0DA
:1008400030E040E251E4C501B4010E94CC0B2B0121
:100850003C010E94BD0D4B01B12CA12C4AE0C50109
:10086000B4010E943103E80EF91EC501B4010E94D3
:100870006B0B9B01AC01C301B2010E94DE0C4B016A
:100880005C01DBCFC701CF911F910F91FF90EF90DB
:10089000DF90CF90BF90AF909F908F907F906F90A0
:1008A0005F904F9008950F931F93CF93DF93EC01C8
:1008B0000E9422038C0166E371E0CE010E942203B4
:1008C000800F911FDF91CF911F910F9108950F938A
:1008D0001F93CF93DF93EC0188819981009759F0A2
:1008E0002A813B812617370730F081E0DF91CF91D5
:1008F0001F910F9108958B016F5F7F4F0E94430FEF
:10090000009759F0998388831B830A832C813D814A
:10091000232B59F7FC011082E8CF80E0E7CFEF925C
:10092000FF920F931F93CF93DF93EC017B018A011A
:10093000BA010E94670428813981811114C02115F0
:10094000310519F0C9010E94BA0E198218821D8260
:100950001C821B821A82CE01DF91CF911F910F91D1
:10096000FF90EF9008951D830C83B701C9010E9489
:100970001410F1CFFB0101900020E9F73197AF018E
:10098000461B570B0C948F04AF92BF92CF92DF920D
:10099000EF92FF920F931F93CF93DF93EC016B01C4
:1009A0005A0179012417350720F48B2D5901E42EC3
:1009B000F82E198218821B821A821D821C8268E31B
:1009C00071E0CE010E94BA04D60114960D911C91DB
:1009D000A016B10628F5E016F10608F48701D60145
:1009E000ED91FC911197E00FF11FF08010826D9155
:1009F0007C916A0D7B1D61157105F1F0FB01019081
:100A00000020E9F73197AF01461B570BCE010E943A
:100A10008F04F60180819181080F191FD801FC9283
:100A2000CE01DF91CF911F910F91FF90EF90DF905A
:100A3000CF90BF90AF90089588819981009711F071
:100A40000E94BA0E198218821D821C821B821A8291
:100A5000E0CF1F920F920FB60F9211242F933F9366
:100A60008F939F93AF93BF9380910D0290910E024D
:100A7000A0910F02B09110023091080223E0230FE1
:100A80002D3758F50196A11DB11D209308028093C2
:100A90000D0290930E02A0930F02B093100280916A
:100AA000090290910A02A0910B02B0910C020196EA
:100AB000A11DB11D8093090290930A02A0930B021D
:100AC000B0930C02BF91AF919F918F913F912F9165
:100AD0000F900FBE0F901F90189526E8230F0296D7
:100AE000A11DB11DD2CF1F920F920FB60F921124EC
:100AF0002F933F934F935F936F937F938F939F9326
:100B0000AF93BF93EF93FF9381E192E00E94800146
:100B1000FF91EF91BF91AF919F918F917F916F91D5
:100B20005F914F913F912F910F900FBE0F901F90AB
:100B300018951F920F920FB60F9211242F938F9337
:100B40009F93EF93FF93E0912102F0912202808125
:100B5000E0912702F091280282FD1BC090818091D4
:100B60002A028F5F8F7320912B02821741F0E09150
:100B70002A02F0E0EF5EFD4F958F80932A02FF91ED
:100B8000EF919F918F912F910F900FBE0F901F901B
:100B900018958081F4CF1F920F920FB60F921124F7
:100BA0002F933F934F935F936F937F938F939F9375
:100BB000AF93BF93EF93FF93E0910602F09107028A
:100BC000309749F0A685B7858585968D91FF14C02D
:100BD0009C918923A1F4FF91EF91BF91AF919F91D7
:100BE0008F917F916F915F914F913F912F910F90D6
:100BF0000FBE0F901F9018959C91892361F7A389D0
:100C0000B4899C918589809589238C93868997895D
:100C10000197F1F7608D718DA685B785558538E010
:100C200020E0CB010197F1F7822F90E09595879511
:100C3000282F4C91452309F02068315091F7868D7B
:100C400081FD20958091050290E001968F73992790
:100C500030910402381799F0A0910502B0E0AC532E
:100C6000BE4F2C9380930502828D938D0197F1F7EF
:100C7000A389B4898C919589892B8C93ACCF868D6F
:100C80008160868FF1CF90E0FC01ED55FF4F2491FC
:100C9000FC01E751FF4F3491FC01EB52FF4FE4910F
:100CA000EE23C9F0222339F0233001F1A8F42130DA
:100CB00019F1223029F1F0E0EE0FFF1FE553FF4F4D
:100CC000A591B4918FB7F894EC91611126C030953D
:100CD0003E233C938FBF08952730A9F02830C9F0F8
:100CE000243049F7809180008F7D03C0809180007F
:100CF0008F7780938000DFCF84B58F7784BDDBCF83
:100D000084B58F7DFBCF8091B0008F778093B0004A
:100D1000D2CF8091B0008F7DF9CF3E2BDACF0F93E9
:100D20001F93CF93DF93109214021092130288EE58
:100D300093E0A0E0B0E08093150290931602A09398
:100D40001702B09318022AE031E030931202209388
:100D5000110225EC30E030931E0220931D0224EC9A
:100D600030E03093200220931F0220EC30E03093DB
:100D700022022093210221EC30E0309324022093C0
:100D8000230222EC30E0309326022093250226EC49
:100D900030E0309328022093270210922A0210920A
:100DA0002B0210922C0210922D021092B10210927E
:100DB000B0028093B2029093B302A093B402B093B6
:100DC000B5028CE191E09093AF028093AE02109255
:100DD000C5021092C4021092C7021092C60210926D
:100DE000C9021092C8021092CB021092CA026091FE
:100DF000CC026E7F6D7F6093CC026695617081E05E
:100E0000682783E00E9443064CEE50E0FA016491AB
:100E100088ED90E0FC012491222399F030E0220F2C
:100E2000331FF901EF53FF4FA591B491F901E55339
:100E3000FF4F259134912FB7F8943C91632B6C931D
:100E40002FBFFA0144914093BE02FC018491E82F28
:100E5000F0E0EE0FFF1FE553FF4F859194919093C3
:100E6000C0028093BF020BEE10E0F8012491C7EDA1
:100E7000D0E0FE0184918823C9F090E0880F991F8B
:100E8000FC01EF53FF4FA591B491FC01E553FF4FD7
:100E9000459154913FB7F8949C91822F8095982367
:100EA0009C93FA019081892380833FBF8091CC027B
:100EB00081FD04C061E082E00E94430682E08093ED
:100EC000BA02F80104910093BB02FE01C491EC2F19
:100ED000F0E0EE0FFF1FE954FF4F8591949190933E
:100EE000BD028093BC02DF91CF911F910F910895B5
:100EF000CF93DF93CDB7DEB768970FB6F894DEBF18
:100F00000FBECDBF789484B5826084BD84B5816006
:100F100084BD85B5826085BD85B5816085BD8091C4
:100F20006E00816080936E0010928100809181003C
:100F30008260809381008091810081608093810034
:100F4000809180008160809380008091B1008460F6
:100F50008093B1008091B00081608093B000809157
:100F60007A00846080937A0080917A008260809316
:100F70007A0080917A00816080937A0080917A0073
:100F8000806880937A001092C100E0912102F09174
:100F9000220282E08083E0911D02F0911E02108205
:100FA000E0911F02F09120028FEC808310922902C1
:100FB000E0912502F091260286E08083E0912302F1
:100FC000F0912402808180618083E0912302F0917E
:100FD0002402808188608083E0912302F0912402C2
:100FE000808180688083E0912302F09124028081D7
:100FF0008F7D808369E371E081E192E00E94530478
:101000001092C9021092C8021092C7021092C60232
:101010001092C5021092C4028DE991E09093CB0228
:101020008093CA029091BA02963108F047C02DEB26
:1010300030E03093C5022093C4022BE931E03093B5
:10104000C7022093C6022CE231E03093C9022093FC
:10105000C8022091680084E0983048F031E09E306A
:1010600008F430E081E001C0880F3A95EAF7822B5E
:10107000809368002DE630E0983050F02BE630E0A9
:101080009E3030F02CE630E0963110F030E020E079
:101090003093C2022093C102292F30E0983008F02B
:1010A00094C081E001C0880F9A95EAF78093C3024B
:1010B0008091CA029091CB020197F1F78091C8020A
:1010C0009091C902892B49F1E0910602F091070243
:1010D00082E0EE3AF80709F1309739F0A389B48934
:1010E0009C918589809589238C938091CC028E7FF9
:1010F0008093CC0210920502109204028EEA92E0D4
:101100009093070280930602E091C102F091C2021F
:1011100080819091C302892B80836DE471E081E12D
:1011200092E00E94530460ED77E080E090E00E943E
:10113000D00065E671E08EEA92E00E94530468EE0A
:1011400073E080E090E00E94D00080E0E82E80E034
:10115000F82E62E771E08EEA92E00E9453048EEA74
:1011600092E00E948402892B09F400C11C8A1B8A28
:101170001E8A1D8A188E1F8A68E371E0CE0143968D
:101180000E94BA040E94BB024F89588D97FD2AC065
:101190008A30910539F189831A828A010F5F1F4FC6
:1011A000B801CE0143960E946704882359F32B8926
:1011B0003C898F89988DBE016F5F7F4F820F931F8F
:1011C0000E941410188F0F8BDDCF9E3040F42850F2
:1011D000310981E001C0880F2A95EAF767CF2E50C8
:1011E0003109F7CF6B897C8981E192E00E9402018D
:1011F00066E371E081E192E00E9422031A82198283
:101200001C821B821E821D826DE771E0CE01019659
:101210000E94BA044D815E818F89988D841795074D
:1012200070F08B899C89009751F069817A816115F2
:10123000710529F00E941B1011E0892B09F010E0C4
:10124000CE0101960E941A03112309F48BC01E8659
:101250001D86188A1F861A8A198A6B897C896115EE
:10126000710531F04F89588DCE010D960E948F0483
:1012700070E060E0CE010D960E94FE02BC016F5F3F
:101280007F4FCE010D960E94FE02BC016F5F7F4F23
:10129000CE010D960E94FE024C015C018FEFA81A50
:1012A000B80AB501CE010D960E94FE028C0189207C
:1012B000809409F473C00F3F100709F46FC09801C0
:1012C000A501BE01635F7F4FCE0107960E94C40453
:1012D00029893A89A8014F5F5F4FBE01635F7F4F45
:1012E000CE0101960E94C4048F819885412C512C17
:1012F0003201009721F00E94F1092B013C01898104
:101300009A81812C912C5401009721F00E94F109BF
:101310004B015C0167E871E081E192E00E942203E9
:1013200046E0C301B2010E94770365E971E081E103
:1013300092E00E94220346E0C501B4010E947703B7
:1013400065EA71E081E192E00E945304CE010196CA
:101350000E941A03CE0107960E941A03CE010D9631
:101360000E941A03CE0143960E941A0368EB7BE0A9
:1013700080E090E00E94D00062E771E08EEA92E0A7
:101380000E945304E114F10409F4E3CE0E946C01BD
:10139000882309F4DECE0E940000DBCE67EA71E00C
:1013A00081E192E00E945304D9CF8CE191E09093C7
:1013B000AF028093AE0280910602909107028E5A8E
:1013C000924071F4E091C102F091C202908180914B
:1013D000C30280958923808310920702109206022F
:1013E0000895662777270C94F509B0E0A0E0EBEFAD
:1013F000F9E00C949E0C5C017B016115710519F0FC
:10140000DB018D939C9385010F5F1F4FF501D08108
:101410008D2F90E00E94450B6C01892BB9F5DD32D0
:10142000B9F50F5F1F4FD5011196DC91C1E058014E
:10143000F1E0AF1AB10843E050E060E770E0C501A9
:101440000E944E0B892B69F5680182E0C80ED11C01
:1014500045E050E06BE670E0C6010E944E0B892B20
:1014600021F4680197E0C90ED11CE114F10419F0D0
:10147000D701CD92DC9260E070E080E89FEFC1116F
:10148000FFC060E070E080E89FE7FAC05801BBCF82
:10149000DB3229F485010E5F1F4FF501D181C0E0D9
:1014A000C6CF43E050E068E670E0C5010E944E0BF5
:1014B000892BE9F0F80110E000E020E030E0A9011C
:1014C0005F01B0ED8B2E8D0E89E08815C8F19C2E42
:1014D000689491F88C2F8870C2FF16C0811102C0E9
:1014E0000F5F1F4F3196D501DC91C92DE9CFE11473
:1014F000F10429F00E5F1F4FF7011183008360E0B4
:1015000070E080EC9FE7BCC0882311F00150110906
:10151000A5E0B0E00E948D0C9B01AC01220F331FAF
:10152000441F551F280D311D411D511D283999E9B2
:101530003907490799E15907A8F2C6609C2ED2CF16
:10154000AEEF8A1206C0C3FD3CC09C2E689493F88F
:10155000C9CFDF7DD534A9F580818D3239F4C061E2
:10156000DF011296818162E070E006C0DF018B32FC
:10157000C1F3119661E070E080535D01A61AB70ACD
:101580008A30F8F4E0E8CE16ECE0DE065CF4B60152
:10159000660F771F660F771FC60ED71ECC0CDD1C9B
:1015A000C80ED11C5D01FFEFAF1ABF0A8C918053AA
:1015B0008A30A8F1C4FF03C0D194C194D1080C0DA6
:1015C0001D1DC1FF09C0E114F10431F081E0A81A2A
:1015D000B108D701AD92BC92CA01B9010E946B0B50
:1015E000C370C33009F490584B015C0120E030E037
:1015F000A9010E94660B882309F440C0CFE9D0E01E
:1016000017FF05C0119501951109C7E8D0E06E01DB
:10161000B8E1CB1AD10880E2E82EF12C0FC0D50139
:10162000B1CFFE0125913591459154910E191F09B5
:10163000C501B4010E94CC0B4B015C01D501C40172
:101640000E151F0574F72497F594E794CC16DD0664
:10165000A9F78A2F880F8B2F881F8F3F49F020E032
:1016600030E0A901C501B4010E94660B811106C0DA
:1016700082E290E09093CE028093CD02C501B40146
:10168000CDB7DEB7ECE00C94BA0C91110C94390C88
:10169000803219F089508550C8F70895FB01DC01AC
:1016A0004150504088F08D9181341CF08B350CF402
:1016B000805E659161341CF06B350CF4605E861BB6
:1016C000611171F3990B0895881BFCCF0E94A80B40
:1016D00008F481E00895E89409C097FB3EF49095E2
:1016E0008095709561957F4F8F4F9F4F9923A9F0FB
:1016F000F92F96E9BB279395F6958795779567958A
:10170000B795F111F8CFFAF4BB0F11F460FF1BC0CD
:101710006F5F7F4F8F4F9F4F16C0882311F096E960
:1017200011C0772321F09EE8872F762F05C066230E
:1017300071F096E8862F70E060E02AF09A95660FC7
:10174000771F881FDAF7880F9695879597F9089580
:10175000990F0008550FAA0BE0E8FEEF16161706C2
:10176000E807F907C0F012161306E407F50798F02A
:10177000621B730B840B950B39F40A2661F0232B43
:10178000242B252B21F408950A2609F4A140A695BF
:101790008FEF811D811D08950E94DF0B0C94530C67
:1017A0000E94450C38F00E944C0C20F0952311F05B
:1017B0000C943C0C0C94420C11240C94870C0E9449
:1017C000640C70F3959FC1F3950F50E0551F629F15
:1017D000F001729FBB27F00DB11D639FAA27F00D8A
:1017E000B11DAA1F649F6627B00DA11D661F829FB1
:1017F0002227B00DA11D621F739FB00DA11D621F96
:10180000839FA00D611D221F749F3327A00D611DB2
:10181000231F849F600D211D822F762F6A2F112494
:101820009F5750409AF0F1F088234AF0EE0FFF1FC7
:10183000BB1F661F771F881F91505040A9F79E3F1E
:10184000510580F00C943C0C0C94870C5F3FE4F342
:10185000983ED4F3869577956795B795F795E79574
:101860009F5FC1F7FE2B880F911D9695879597F97D
:10187000089599278827089597F99F6780E870E071
:1018800060E008959FEF80EC089500240A941616F6
:10189000170618060906089500240A94121613065E
:1018A000140605060895092E0394000C11F48823EC
:1018B00052F0BB0F40F4BF2B11F460FF04C06F5F08
:1018C0007F4F8F4F9F4F089557FD9058440F551FDE
:1018D00059F05F3F71F04795880F97FB991F61F0B2
:1018E0009F3F79F087950895121613061406551F29
:1018F000F2CF4695F1DF08C0161617061806991F95
:10190000F1CF86957105610508940895E894BB2789
:1019100066277727CB0197F908950E94CF0CA59FE2
:10192000900DB49F900DA49F800D911D11240895DA
:101930002F923F924F925F926F927F928F929F92DF
:10194000AF92BF92CF92DF92EF92FF920F931F93CD
:10195000CF93DF93CDB7DEB7CA1BDB0B0FB6F8947E
:10196000DEBF0FBECDBF09942A88398848885F84BE
:101970006E847D848C849B84AA84B984C884DF802F
:10198000EE80FD800C811B81AA81B981CE0FD11D13
:101990000FB6F894DEBF0FBECDBFED010895A29F34
:1019A000B001B39FC001A39F700D811D1124911D33
:1019B000B29F700D811D1124911D08955058BB27B1
:1019C000AA270E94F60C0C94530C0E94450C38F088
:1019D0000E944C0C20F039F49F3F19F426F40C942B
:1019E000420C0EF4E095E7FB0C943C0CE92F0E94AE
:1019F000640C58F3BA17620773078407950720F041
:101A000079F4A6F50C94860C0EF4E0950B2EBA2F03
:101A1000A02D0B01B90190010C01CA01A0011124F4
:101A2000FF27591B99F0593F50F4503E68F11A16A0
:101A3000F040A22F232F342F4427585FF3CF469531
:101A400037952795A795F0405395C9F77EF41F1653
:101A5000BA0B620B730B840BBAF09150A1F0FF0F1D
:101A6000BB1F661F771F881FC2F70EC0BA0F621F09
:101A7000731F841F48F4879577956795B795F795F9
:101A80009E3F08F0B0CF9395880F08F09927EE0F8E
:101A90009795879508950E945F0D0C94530C0E94B2
:101AA0004C0C58F00E94450C40F029F45F3F29F09F
:101AB0000C943C0C51110C94870C0C94420C0E9419
:101AC000640C68F39923B1F3552391F3951B550BDF
:101AD000BB27AA2762177307840738F09F5F5F4F01
:101AE000220F331F441FAA1FA9F335D00E2E3AF040
:101AF000E0E832D091505040E695001CCAF72BD058
:101B0000FE2F29D0660F771F881FBB1F26173707A8
:101B10004807AB07B0E809F0BB0B802DBF01FF27DA
:101B200093585F4F3AF09E3F510578F00C943C0C6F
:101B30000C94870C5F3FE4F3983ED4F38695779539
:101B40006795B795F7959F5FC9F7880F911D969593
:101B5000879597F90895E1E0660F771F881FBB1FEF
:101B6000621773078407BA0720F0621B730B840B9C
:101B7000BA0BEE1F88F7E09508950E946C0C88F070
:101B80009F5798F0B92F9927B751B0F0E1F0660F41
:101B9000771F881F991F1AF0BA95C9F714C0B13082
:101BA00091F00E94860CB1E008950C94860C672F8A
:101BB000782F8827B85F39F0B93FCCF386957795B1
:101BC0006795B395D9F73EF490958095709561959A
:101BD0007F4F8F4F9F4F08950E94A80B08F48FEFFF
:101BE00008950E94A80B880B990B0895A1E21A2E64
:101BF000AA1BBB1BFD010DC0AA1FBB1FEE1FFF1FB1
:101C0000A217B307E407F50720F0A21BB30BE40B00
:101C1000F50B661F771F881F991F1A9469F7609547
:101C20007095809590959B01AC01BD01CF01089501
:101C3000EE0FFF1F0590F491E02D09940F931F9371
:101C4000CF93DF938230910510F482E090E0E09131
:101C5000D102F091D20230E020E0B0E0A0E0309775
:101C600099F42115310509F44AC0281B390B243099
:101C70003105D8F58A819B816115710589F1FB01D8
:101C800093838283FE0111C04081518102811381BF
:101C900048175907E0F04817590799F4109761F071
:101CA00012960C93129713961C933296CF01DF91E4
:101CB000CF911F910F9108950093D1021093D202FA
:101CC000F4CF2115310551F04217530738F0A9011F
:101CD000DB019A01BD01DF01F801C1CFEF01F9CFAE
:101CE0009093D2028093D102CDCFFE01E20FF31F79
:101CF000819391932250310939832883D7CF209142
:101D0000CF023091D002232B41F420910201309177
:101D100003013093D0022093CF0220910001309133
:101D200001012115310541F42DB73EB74091040161
:101D300050910501241B350BE091CF02F091D002A8
:101D4000E217F307A0F42E1B3F0B2817390778F092
:101D5000AC014E5F5F4F2417350748F04E0F5F1FF1
:101D60005093D0024093CF02819391939FCFF0E0A4
:101D7000E0E09CCFCF93DF930097E9F0FC0132972E
:101D800013821282A091D102B091D202ED0130E013
:101D900020E01097A1F420813181820F931F2091C0
:101DA000CF023091D0022817390709F061C0F093B3
:101DB000D002E093CF02DF91CF910895EA01CE17D0
:101DC000DF07E8F54A815B819E0141155105B1F7B6
:101DD000E901FB83EA8349915991C40FD51FEC17A0
:101DE000FD0761F4808191810296840F951FE901BE
:101DF00099838883828193819B838A83F0E0E0E0EA
:101E000012968D919C9113970097B9F52D913C9165
:101E10001197CD010296820F931F2091CF0230912E
:101E2000D0022817390739F6309751F51092D202AF
:101E30001092D102B093D002A093CF02BCCFD38333
:101E4000C28340815181840F951FC817D90761F45F
:101E50004E5F5F4F88819981480F591F518340839E
:101E60008A819B81938382832115310509F0B0CF4C
:101E7000F093D202E093D1029ECFFD01DC01C0CFEE
:101E800013821282D7CFB0E0A0E0E9E4FFE00C9427
:101E90009A0C8C01009751F4CB010E941E0E8C010C
:101EA000C801CDB7DEB7E0E10C94B60CFC01E60F3B
:101EB000F71F9C0122503109E217F30708F49DC077
:101EC000D901CD91DC911197C617D70798F0C5308D
:101ED000D10530F3CE0104978617970708F3C61B88
:101EE000D70B2297C193D1936D937C93CF010E941E
:101EF000BA0ED6CF5B01AC1ABD0A4C018C0E9D1EEA
:101F0000A091D102B091D202512C412CF12CE12CA4
:101F1000109731F58091CF029091D00288159905E4
:101F200009F05CC04616570608F058C080910001C1
:101F300090910101009741F48DB79EB74091040143
:101F400050910501841B950BE817F90708F055C05F
:101F5000F093D002E093CF02F90171836083A0CFA8
:101F60008D919C91119712966C90129713967C907C
:101F70001397A815B90559F56C0142E0C40ED11CA0
:101F8000CA14DB0420F1AC014A195B09DA0112968C
:101F9000159780F06282738251834083D9016D93DB
:101FA0007C93E114F10471F0D7011396FC93EE9346
:101FB000129776CF22968C0F9D1FF9019183808313
:101FC000F301EFCFF093D202E093D10269CF48162C
:101FD000590608F42C017D01D3019ACFCB010E9450
:101FE0001E0E7C01009749F0AE01B8010E9400105E
:101FF000C8010E94BA0E870153CF10E000E050CF15
:10200000FB01DC0102C001900D9241505040D8F715
:102010000895FC018191861721F08823D9F799272B
:1020200008953197CF010895FB01DC0101900D92D5
:102030000020E1F70895FB01DC014150504030F0F1
:102040008D910190801919F40020B9F7881B990B24
:10205000089510E0C0E8D0E004C0FE010E94180E10
:0C2060002196C138D107C9F7F894FFCFD2
:10206C000000D302800000000000A20102012F0139
:10207C00EF0160013E015201000000002802020144
:10208C00FB02270284029A020F026E616E00696ED7
:10209C0066006F7666000D0A0053657269616C20EC
:1020AC00504320436F6E65637461646F00536572B7
:1020BC0069616C2053494D38303820436F6E65632D
:1020CC007461646F0041542B43474E535057523D3B
:1020DC00310041542B43474E53494E46002B434746
:1020EC004E53494E463A007B226C61746974756498
:1020FC0065223A20002C20226C6F6E67697475641F
:10210C0065223A20007D004572726F7220706172F8
:10211C0073696E672043474E53494E462064617481
:04212C00612E000020
:00000001FF
